{
  "contractName": "Land",
  "abi": [
    {
      "inputs": [
        {
          "internalType": "string",
          "name": "_name",
          "type": "string"
        },
        {
          "internalType": "string",
          "name": "_symbol",
          "type": "string"
        },
        {
          "internalType": "uint256",
          "name": "_cost",
          "type": "uint256"
        }
      ],
      "stateMutability": "nonpayable",
      "type": "constructor"
    },
    {
      "anonymous": false,
      "inputs": [
        {
          "indexed": true,
          "internalType": "address",
          "name": "owner",
          "type": "address"
        },
        {
          "indexed": true,
          "internalType": "address",
          "name": "approved",
          "type": "address"
        },
        {
          "indexed": true,
          "internalType": "uint256",
          "name": "tokenId",
          "type": "uint256"
        }
      ],
      "name": "Approval",
      "type": "event"
    },
    {
      "anonymous": false,
      "inputs": [
        {
          "indexed": true,
          "internalType": "address",
          "name": "owner",
          "type": "address"
        },
        {
          "indexed": true,
          "internalType": "address",
          "name": "operator",
          "type": "address"
        },
        {
          "indexed": false,
          "internalType": "bool",
          "name": "approved",
          "type": "bool"
        }
      ],
      "name": "ApprovalForAll",
      "type": "event"
    },
    {
      "anonymous": false,
      "inputs": [
        {
          "indexed": true,
          "internalType": "address",
          "name": "from",
          "type": "address"
        },
        {
          "indexed": true,
          "internalType": "address",
          "name": "to",
          "type": "address"
        },
        {
          "indexed": true,
          "internalType": "uint256",
          "name": "tokenId",
          "type": "uint256"
        }
      ],
      "name": "Transfer",
      "type": "event"
    },
    {
      "inputs": [
        {
          "internalType": "address",
          "name": "to",
          "type": "address"
        },
        {
          "internalType": "uint256",
          "name": "tokenId",
          "type": "uint256"
        }
      ],
      "name": "approve",
      "outputs": [],
      "stateMutability": "nonpayable",
      "type": "function"
    },
    {
      "inputs": [
        {
          "internalType": "address",
          "name": "owner",
          "type": "address"
        }
      ],
      "name": "balanceOf",
      "outputs": [
        {
          "internalType": "uint256",
          "name": "",
          "type": "uint256"
        }
      ],
      "stateMutability": "view",
      "type": "function",
      "constant": true
    },
    {
      "inputs": [
        {
          "internalType": "uint256",
          "name": "",
          "type": "uint256"
        }
      ],
      "name": "buildings",
      "outputs": [
        {
          "internalType": "string",
          "name": "name",
          "type": "string"
        },
        {
          "internalType": "address",
          "name": "owner",
          "type": "address"
        },
        {
          "internalType": "int256",
          "name": "posX",
          "type": "int256"
        },
        {
          "internalType": "int256",
          "name": "posY",
          "type": "int256"
        },
        {
          "internalType": "int256",
          "name": "posZ",
          "type": "int256"
        },
        {
          "internalType": "uint256",
          "name": "sizeX",
          "type": "uint256"
        },
        {
          "internalType": "uint256",
          "name": "sizeY",
          "type": "uint256"
        },
        {
          "internalType": "uint256",
          "name": "sizeZ",
          "type": "uint256"
        }
      ],
      "stateMutability": "view",
      "type": "function",
      "constant": true
    },
    {
      "inputs": [],
      "name": "cost",
      "outputs": [
        {
          "internalType": "uint256",
          "name": "",
          "type": "uint256"
        }
      ],
      "stateMutability": "view",
      "type": "function",
      "constant": true
    },
    {
      "inputs": [
        {
          "internalType": "uint256",
          "name": "tokenId",
          "type": "uint256"
        }
      ],
      "name": "getApproved",
      "outputs": [
        {
          "internalType": "address",
          "name": "",
          "type": "address"
        }
      ],
      "stateMutability": "view",
      "type": "function",
      "constant": true
    },
    {
      "inputs": [
        {
          "internalType": "address",
          "name": "owner",
          "type": "address"
        },
        {
          "internalType": "address",
          "name": "operator",
          "type": "address"
        }
      ],
      "name": "isApprovedForAll",
      "outputs": [
        {
          "internalType": "bool",
          "name": "",
          "type": "bool"
        }
      ],
      "stateMutability": "view",
      "type": "function",
      "constant": true
    },
    {
      "inputs": [],
      "name": "maxSupply",
      "outputs": [
        {
          "internalType": "uint256",
          "name": "",
          "type": "uint256"
        }
      ],
      "stateMutability": "view",
      "type": "function",
      "constant": true
    },
    {
      "inputs": [],
      "name": "name",
      "outputs": [
        {
          "internalType": "string",
          "name": "",
          "type": "string"
        }
      ],
      "stateMutability": "view",
      "type": "function",
      "constant": true
    },
    {
      "inputs": [
        {
          "internalType": "uint256",
          "name": "tokenId",
          "type": "uint256"
        }
      ],
      "name": "ownerOf",
      "outputs": [
        {
          "internalType": "address",
          "name": "",
          "type": "address"
        }
      ],
      "stateMutability": "view",
      "type": "function",
      "constant": true
    },
    {
      "inputs": [
        {
          "internalType": "address",
          "name": "operator",
          "type": "address"
        },
        {
          "internalType": "bool",
          "name": "approved",
          "type": "bool"
        }
      ],
      "name": "setApprovalForAll",
      "outputs": [],
      "stateMutability": "nonpayable",
      "type": "function"
    },
    {
      "inputs": [
        {
          "internalType": "bytes4",
          "name": "interfaceId",
          "type": "bytes4"
        }
      ],
      "name": "supportsInterface",
      "outputs": [
        {
          "internalType": "bool",
          "name": "",
          "type": "bool"
        }
      ],
      "stateMutability": "view",
      "type": "function",
      "constant": true
    },
    {
      "inputs": [],
      "name": "symbol",
      "outputs": [
        {
          "internalType": "string",
          "name": "",
          "type": "string"
        }
      ],
      "stateMutability": "view",
      "type": "function",
      "constant": true
    },
    {
      "inputs": [
        {
          "internalType": "uint256",
          "name": "tokenId",
          "type": "uint256"
        }
      ],
      "name": "tokenURI",
      "outputs": [
        {
          "internalType": "string",
          "name": "",
          "type": "string"
        }
      ],
      "stateMutability": "view",
      "type": "function",
      "constant": true
    },
    {
      "inputs": [],
      "name": "totalSupply",
      "outputs": [
        {
          "internalType": "uint256",
          "name": "",
          "type": "uint256"
        }
      ],
      "stateMutability": "view",
      "type": "function",
      "constant": true
    },
    {
      "inputs": [
        {
          "internalType": "uint256",
          "name": "_id",
          "type": "uint256"
        }
      ],
      "name": "mint",
      "outputs": [],
      "stateMutability": "payable",
      "type": "function",
      "payable": true
    },
    {
      "inputs": [
        {
          "internalType": "address",
          "name": "from",
          "type": "address"
        },
        {
          "internalType": "address",
          "name": "to",
          "type": "address"
        },
        {
          "internalType": "uint256",
          "name": "tokenId",
          "type": "uint256"
        }
      ],
      "name": "transferFrom",
      "outputs": [],
      "stateMutability": "nonpayable",
      "type": "function"
    },
    {
      "inputs": [
        {
          "internalType": "address",
          "name": "from",
          "type": "address"
        },
        {
          "internalType": "address",
          "name": "to",
          "type": "address"
        },
        {
          "internalType": "uint256",
          "name": "tokenId",
          "type": "uint256"
        }
      ],
      "name": "safeTransferFrom",
      "outputs": [],
      "stateMutability": "nonpayable",
      "type": "function"
    },
    {
      "inputs": [
        {
          "internalType": "address",
          "name": "from",
          "type": "address"
        },
        {
          "internalType": "address",
          "name": "to",
          "type": "address"
        },
        {
          "internalType": "uint256",
          "name": "tokenId",
          "type": "uint256"
        },
        {
          "internalType": "bytes",
          "name": "_data",
          "type": "bytes"
        }
      ],
      "name": "safeTransferFrom",
      "outputs": [],
      "stateMutability": "nonpayable",
      "type": "function"
    },
    {
      "inputs": [],
      "name": "getBuildings",
      "outputs": [
        {
          "components": [
            {
              "internalType": "string",
              "name": "name",
              "type": "string"
            },
            {
              "internalType": "address",
              "name": "owner",
              "type": "address"
            },
            {
              "internalType": "int256",
              "name": "posX",
              "type": "int256"
            },
            {
              "internalType": "int256",
              "name": "posY",
              "type": "int256"
            },
            {
              "internalType": "int256",
              "name": "posZ",
              "type": "int256"
            },
            {
              "internalType": "uint256",
              "name": "sizeX",
              "type": "uint256"
            },
            {
              "internalType": "uint256",
              "name": "sizeY",
              "type": "uint256"
            },
            {
              "internalType": "uint256",
              "name": "sizeZ",
              "type": "uint256"
            }
          ],
          "internalType": "struct Land.Building[]",
          "name": "",
          "type": "tuple[]"
        }
      ],
      "stateMutability": "view",
      "type": "function",
      "constant": true
    },
    {
      "inputs": [
        {
          "internalType": "uint256",
          "name": "_id",
          "type": "uint256"
        }
      ],
      "name": "getBuilding",
      "outputs": [
        {
          "components": [
            {
              "internalType": "string",
              "name": "name",
              "type": "string"
            },
            {
              "internalType": "address",
              "name": "owner",
              "type": "address"
            },
            {
              "internalType": "int256",
              "name": "posX",
              "type": "int256"
            },
            {
              "internalType": "int256",
              "name": "posY",
              "type": "int256"
            },
            {
              "internalType": "int256",
              "name": "posZ",
              "type": "int256"
            },
            {
              "internalType": "uint256",
              "name": "sizeX",
              "type": "uint256"
            },
            {
              "internalType": "uint256",
              "name": "sizeY",
              "type": "uint256"
            },
            {
              "internalType": "uint256",
              "name": "sizeZ",
              "type": "uint256"
            }
          ],
          "internalType": "struct Land.Building",
          "name": "",
          "type": "tuple"
        }
      ],
      "stateMutability": "view",
      "type": "function",
      "constant": true
    }
  ],
  "bytecode": "0x6080604052670de0b6b3a7640000600655600560075560006008553480156200002757600080fd5b5060405162003e9838038062003e9883398181016040528101906200004d919062000935565b8282816000908162000060919062000c10565b50806001908162000072919062000c10565b5050508060068190555060096040518061010001604052806040518060400160405280600981526020017f436974792048616c6c00000000000000000000000000000000000000000000008152508152602001600073ffffffffffffffffffffffffffffffffffffffff168152602001600081526020016000815260200160008152602001600a8152602001600a8152602001600a815250908060018154018082558091505060019003906000526020600020906008020160009091909190915060008201518160000190816200014a919062000c10565b5060208201518160010160006101000a81548173ffffffffffffffffffffffffffffffffffffffff021916908373ffffffffffffffffffffffffffffffffffffffff16021790555060408201518160020155606082015181600301556080820151816004015560a0820151816005015560c0820151816006015560e08201518160070155505060096040518061010001604052806040518060400160405280600781526020017f5374616469756d000000000000000000000000000000000000000000000000008152508152602001600073ffffffffffffffffffffffffffffffffffffffff16815260200160008152602001600a815260200160008152602001600a8152602001600581526020016003815250908060018154018082558091505060019003906000526020600020906008020160009091909190915060008201518160000190816200029e919062000c10565b5060208201518160010160006101000a81548173ffffffffffffffffffffffffffffffffffffffff021916908373ffffffffffffffffffffffffffffffffffffffff16021790555060408201518160020155606082015181600301556080820151816004015560a0820151816005015560c0820151816006015560e08201518160070155505060096040518061010001604052806040518060400160405280600a81526020017f556e6976657273697479000000000000000000000000000000000000000000008152508152602001600073ffffffffffffffffffffffffffffffffffffffff168152602001600081526020017ffffffffffffffffffffffffffffffffffffffffffffffffffffffffffffffff6815260200160008152602001600a81526020016005815260200160038152509080600181540180825580915050600190039060005260206000209060080201600090919091909150600082015181600001908162000411919062000c10565b5060208201518160010160006101000a81548173ffffffffffffffffffffffffffffffffffffffff021916908373ffffffffffffffffffffffffffffffffffffffff16021790555060408201518160020155606082015181600301556080820151816004015560a0820151816005015560c0820151816006015560e08201518160070155505060096040518061010001604052806040518060400160405280601081526020017f53686f7070696e6720506c617a612031000000000000000000000000000000008152508152602001600073ffffffffffffffffffffffffffffffffffffffff168152602001600a81526020016000815260200160008152602001600581526020016019815260200160058152509080600181540180825580915050600190039060005260206000209060080201600090919091909150600082015181600001908162000565919062000c10565b5060208201518160010160006101000a81548173ffffffffffffffffffffffffffffffffffffffff021916908373ffffffffffffffffffffffffffffffffffffffff16021790555060408201518160020155606082015181600301556080820151816004015560a0820151816005015560c0820151816006015560e08201518160070155505060096040518061010001604052806040518060400160405280601081526020017f53686f7070696e6720506c617a612032000000000000000000000000000000008152508152602001600073ffffffffffffffffffffffffffffffffffffffff1681526020017ffffffffffffffffffffffffffffffffffffffffffffffffffffffffffffffff6815260200160008152602001600081526020016005815260200160198152602001600581525090806001815401808255809150506001900390600052602060002090600802016000909190919091506000820151816000019081620006d8919062000c10565b5060208201518160010160006101000a81548173ffffffffffffffffffffffffffffffffffffffff021916908373ffffffffffffffffffffffffffffffffffffffff16021790555060408201518160020155606082015181600301556080820151816004015560a0820151816005015560c0820151816006015560e08201518160070155505050505062000cf7565b6000604051905090565b600080fd5b600080fd5b600080fd5b600080fd5b6000601f19601f8301169050919050565b7f4e487b7100000000000000000000000000000000000000000000000000000000600052604160045260246000fd5b620007d08262000785565b810181811067ffffffffffffffff82111715620007f257620007f162000796565b5b80604052505050565b60006200080762000767565b9050620008158282620007c5565b919050565b600067ffffffffffffffff82111562000838576200083762000796565b5b620008438262000785565b9050602081019050919050565b60005b838110156200087057808201518184015260208101905062000853565b60008484015250505050565b6000620008936200088d846200081a565b620007fb565b905082815260208101848484011115620008b257620008b162000780565b5b620008bf84828562000850565b509392505050565b600082601f830112620008df57620008de6200077b565b5b8151620008f18482602086016200087c565b91505092915050565b6000819050919050565b6200090f81620008fa565b81146200091b57600080fd5b50565b6000815190506200092f8162000904565b92915050565b60008060006060848603121562000951576200095062000771565b5b600084015167ffffffffffffffff81111562000972576200097162000776565b5b6200098086828701620008c7565b935050602084015167ffffffffffffffff811115620009a457620009a362000776565b5b620009b286828701620008c7565b9250506040620009c5868287016200091e565b9150509250925092565b600081519050919050565b7f4e487b7100000000000000000000000000000000000000000000000000000000600052602260045260246000fd5b6000600282049050600182168062000a2257607f821691505b60208210810362000a385762000a37620009da565b5b50919050565b60008190508160005260206000209050919050565b60006020601f8301049050919050565b600082821b905092915050565b60006008830262000aa27fffffffffffffffffffffffffffffffffffffffffffffffffffffffffffffffff8262000a63565b62000aae868362000a63565b95508019841693508086168417925050509392505050565b6000819050919050565b600062000af162000aeb62000ae584620008fa565b62000ac6565b620008fa565b9050919050565b6000819050919050565b62000b0d8362000ad0565b62000b2562000b1c8262000af8565b84845462000a70565b825550505050565b600090565b62000b3c62000b2d565b62000b4981848462000b02565b505050565b5b8181101562000b715762000b6560008262000b32565b60018101905062000b4f565b5050565b601f82111562000bc05762000b8a8162000a3e565b62000b958462000a53565b8101602085101562000ba5578190505b62000bbd62000bb48562000a53565b83018262000b4e565b50505b505050565b600082821c905092915050565b600062000be56000198460080262000bc5565b1980831691505092915050565b600062000c00838362000bd2565b9150826002028217905092915050565b62000c1b82620009cf565b67ffffffffffffffff81111562000c375762000c3662000796565b5b62000c43825462000a09565b62000c5082828562000b75565b600060209050601f83116001811462000c88576000841562000c73578287015190505b62000c7f858262000bf2565b86555062000cef565b601f19841662000c988662000a3e565b60005b8281101562000cc25784890151825560018201915060208501945060208101905062000c9b565b8683101562000ce2578489015162000cde601f89168262000bd2565b8355505b6001600288020188555050505b505050505050565b6131918062000d076000396000f3fe60806040526004361061011f5760003560e01c806370a08231116100a0578063b88d4fde11610064578063b88d4fde14610405578063c87b56dd1461042e578063d5abeb011461046b578063d9cf6a2614610496578063e985e9c5146104c15761011f565b806370a082311461031b57806395d89b41146103585780639dfd8b0214610383578063a0712d68146103c0578063a22cb465146103dc5761011f565b806318160ddd116100e757806318160ddd1461021d57806323b872dd1461024857806342842e0e146102715780634c96a0621461029a5780636352211e146102de5761011f565b806301ffc9a71461012457806306fdde0314610161578063081812fc1461018c578063095ea7b3146101c957806313faede6146101f2575b600080fd5b34801561013057600080fd5b5061014b6004803603810190610146919061204c565b6104fe565b6040516101589190612094565b60405180910390f35b34801561016d57600080fd5b506101766105e0565b604051610183919061213f565b60405180910390f35b34801561019857600080fd5b506101b360048036038101906101ae9190612197565b610672565b6040516101c09190612205565b60405180910390f35b3480156101d557600080fd5b506101f060048036038101906101eb919061224c565b6106b8565b005b3480156101fe57600080fd5b506102076107cf565b604051610214919061229b565b60405180910390f35b34801561022957600080fd5b506102326107d5565b60405161023f919061229b565b60405180910390f35b34801561025457600080fd5b5061026f600480360381019061026a91906122b6565b6107db565b005b34801561027d57600080fd5b50610298600480360381019061029391906122b6565b6108ab565b005b3480156102a657600080fd5b506102c160048036038101906102bc9190612197565b6108cb565b6040516102d5989796959493929190612322565b60405180910390f35b3480156102ea57600080fd5b5061030560048036038101906103009190612197565b6109cb565b6040516103129190612205565b60405180910390f35b34801561032757600080fd5b50610342600480360381019061033d91906123a7565b610a51565b60405161034f919061229b565b60405180910390f35b34801561036457600080fd5b5061036d610b08565b60405161037a919061213f565b60405180910390f35b34801561038f57600080fd5b506103aa60048036038101906103a59190612197565b610b9a565b6040516103b791906124fb565b60405180910390f35b6103da60048036038101906103d59190612197565b610d07565b005b3480156103e857600080fd5b5061040360048036038101906103fe9190612549565b610e49565b005b34801561041157600080fd5b5061042c600480360381019061042791906126be565b610e5f565b005b34801561043a57600080fd5b5061045560048036038101906104509190612197565b610f31565b604051610462919061213f565b60405180910390f35b34801561047757600080fd5b50610480610f99565b60405161048d919061229b565b60405180910390f35b3480156104a257600080fd5b506104ab610f9f565b6040516104b891906128b3565b60405180910390f35b3480156104cd57600080fd5b506104e860048036038101906104e391906128d5565b611123565b6040516104f59190612094565b60405180910390f35b60007f80ac58cd000000000000000000000000000000000000000000000000000000007bffffffffffffffffffffffffffffffffffffffffffffffffffffffff1916827bffffffffffffffffffffffffffffffffffffffffffffffffffffffff191614806105c957507f5b5e139f000000000000000000000000000000000000000000000000000000007bffffffffffffffffffffffffffffffffffffffffffffffffffffffff1916827bffffffffffffffffffffffffffffffffffffffffffffffffffffffff1916145b806105d957506105d8826111b7565b5b9050919050565b6060600080546105ef90612944565b80601f016020809104026020016040519081016040528092919081815260200182805461061b90612944565b80156106685780601f1061063d57610100808354040283529160200191610668565b820191906000526020600020905b81548152906001019060200180831161064b57829003601f168201915b5050505050905090565b600061067d82611221565b6004600083815260200190815260200160002060009054906101000a900473ffffffffffffffffffffffffffffffffffffffff169050919050565b60006106c3826109cb565b90508073ffffffffffffffffffffffffffffffffffffffff168373ffffffffffffffffffffffffffffffffffffffff1603610733576040517f08c379a000000000000000000000000000000000000000000000000000000000815260040161072a906129e7565b60405180910390fd5b8073ffffffffffffffffffffffffffffffffffffffff1661075261126c565b73ffffffffffffffffffffffffffffffffffffffff16148061078157506107808161077b61126c565b611123565b5b6107c0576040517f08c379a00000000000000000000000000000000000000000000000000000000081526004016107b790612a79565b60405180910390fd5b6107ca8383611274565b505050565b60065481565b60085481565b6107ec6107e661126c565b8261132d565b61082b576040517f08c379a000000000000000000000000000000000000000000000000000000000815260040161082290612b0b565b60405180910390fd5b81600960018361083b9190612b5a565b8154811061084c5761084b612b8e565b5b906000526020600020906008020160010160006101000a81548173ffffffffffffffffffffffffffffffffffffffff021916908373ffffffffffffffffffffffffffffffffffffffff1602179055506108a68383836113c2565b505050565b6108c683838360405180602001604052806000815250610e5f565b505050565b600981815481106108db57600080fd5b90600052602060002090600802016000915090508060000180546108fe90612944565b80601f016020809104026020016040519081016040528092919081815260200182805461092a90612944565b80156109775780601f1061094c57610100808354040283529160200191610977565b820191906000526020600020905b81548152906001019060200180831161095a57829003601f168201915b5050505050908060010160009054906101000a900473ffffffffffffffffffffffffffffffffffffffff16908060020154908060030154908060040154908060050154908060060154908060070154905088565b6000806109d7836116bb565b9050600073ffffffffffffffffffffffffffffffffffffffff168173ffffffffffffffffffffffffffffffffffffffff1603610a48576040517f08c379a0000000000000000000000000000000000000000000000000000000008152600401610a3f90612c09565b60405180910390fd5b80915050919050565b60008073ffffffffffffffffffffffffffffffffffffffff168273ffffffffffffffffffffffffffffffffffffffff1603610ac1576040517f08c379a0000000000000000000000000000000000000000000000000000000008152600401610ab890612c9b565b60405180910390fd5b600360008373ffffffffffffffffffffffffffffffffffffffff1673ffffffffffffffffffffffffffffffffffffffff168152602001908152602001600020549050919050565b606060018054610b1790612944565b80601f0160208091040260200160405190810160405280929190818152602001828054610b4390612944565b8015610b905780601f10610b6557610100808354040283529160200191610b90565b820191906000526020600020905b815481529060010190602001808311610b7357829003601f168201915b5050505050905090565b610ba2611f85565b6009600183610bb19190612b5a565b81548110610bc257610bc1612b8e565b5b906000526020600020906008020160405180610100016040529081600082018054610bec90612944565b80601f0160208091040260200160405190810160405280929190818152602001828054610c1890612944565b8015610c655780601f10610c3a57610100808354040283529160200191610c65565b820191906000526020600020905b815481529060010190602001808311610c4857829003601f168201915b505050505081526020016001820160009054906101000a900473ffffffffffffffffffffffffffffffffffffffff1673ffffffffffffffffffffffffffffffffffffffff1673ffffffffffffffffffffffffffffffffffffffff16815260200160028201548152602001600382015481526020016004820154815260200160058201548152602001600682015481526020016007820154815250509050919050565b60006008549050600754811115610d1d57600080fd5b600073ffffffffffffffffffffffffffffffffffffffff166009600184610d449190612b5a565b81548110610d5557610d54612b8e565b5b906000526020600020906008020160010160009054906101000a900473ffffffffffffffffffffffffffffffffffffffff1673ffffffffffffffffffffffffffffffffffffffff1614610da757600080fd5b600654341015610db657600080fd5b336009600184610dc69190612b5a565b81548110610dd757610dd6612b8e565b5b906000526020600020906008020160010160006101000a81548173ffffffffffffffffffffffffffffffffffffffff021916908373ffffffffffffffffffffffffffffffffffffffff1602179055506001600854610e359190612cbb565b600881905550610e4533836116f8565b5050565b610e5b610e5461126c565b8383611716565b5050565b610e70610e6a61126c565b8361132d565b610eaf576040517f08c379a0000000000000000000000000000000000000000000000000000000008152600401610ea690612b0b565b60405180910390fd5b826009600184610ebf9190612b5a565b81548110610ed057610ecf612b8e565b5b906000526020600020906008020160010160006101000a81548173ffffffffffffffffffffffffffffffffffffffff021916908373ffffffffffffffffffffffffffffffffffffffff160217905550610f2b84848484611882565b50505050565b6060610f3c82611221565b6000610f466118de565b90506000815111610f665760405180602001604052806000815250610f91565b80610f70846118f5565b604051602001610f81929190612d2b565b6040516020818303038152906040525b915050919050565b60075481565b60606009805480602002602001604051908101604052809291908181526020016000905b8282101561111a578382906000526020600020906008020160405180610100016040529081600082018054610ff790612944565b80601f016020809104026020016040519081016040528092919081815260200182805461102390612944565b80156110705780601f1061104557610100808354040283529160200191611070565b820191906000526020600020905b81548152906001019060200180831161105357829003601f168201915b505050505081526020016001820160009054906101000a900473ffffffffffffffffffffffffffffffffffffffff1673ffffffffffffffffffffffffffffffffffffffff1673ffffffffffffffffffffffffffffffffffffffff168152602001600282015481526020016003820154815260200160048201548152602001600582015481526020016006820154815260200160078201548152505081526020019060010190610fc3565b50505050905090565b6000600560008473ffffffffffffffffffffffffffffffffffffffff1673ffffffffffffffffffffffffffffffffffffffff16815260200190815260200160002060008373ffffffffffffffffffffffffffffffffffffffff1673ffffffffffffffffffffffffffffffffffffffff16815260200190815260200160002060009054906101000a900460ff16905092915050565b60007f01ffc9a7000000000000000000000000000000000000000000000000000000007bffffffffffffffffffffffffffffffffffffffffffffffffffffffff1916827bffffffffffffffffffffffffffffffffffffffffffffffffffffffff1916149050919050565b61122a816119c3565b611269576040517f08c379a000000000000000000000000000000000000000000000000000000000815260040161126090612c09565b60405180910390fd5b50565b600033905090565b816004600083815260200190815260200160002060006101000a81548173ffffffffffffffffffffffffffffffffffffffff021916908373ffffffffffffffffffffffffffffffffffffffff160217905550808273ffffffffffffffffffffffffffffffffffffffff166112e7836109cb565b73ffffffffffffffffffffffffffffffffffffffff167f8c5be1e5ebec7d5bd14f71427d1e84f3dd0314c0f7b2291e5b200ac8c7c3b92560405160405180910390a45050565b600080611339836109cb565b90508073ffffffffffffffffffffffffffffffffffffffff168473ffffffffffffffffffffffffffffffffffffffff16148061137b575061137a8185611123565b5b806113b957508373ffffffffffffffffffffffffffffffffffffffff166113a184610672565b73ffffffffffffffffffffffffffffffffffffffff16145b91505092915050565b8273ffffffffffffffffffffffffffffffffffffffff166113e2826109cb565b73ffffffffffffffffffffffffffffffffffffffff1614611438576040517f08c379a000000000000000000000000000000000000000000000000000000000815260040161142f90612dc1565b60405180910390fd5b600073ffffffffffffffffffffffffffffffffffffffff168273ffffffffffffffffffffffffffffffffffffffff16036114a7576040517f08c379a000000000000000000000000000000000000000000000000000000000815260040161149e90612e53565b60405180910390fd5b6114b48383836001611a04565b8273ffffffffffffffffffffffffffffffffffffffff166114d4826109cb565b73ffffffffffffffffffffffffffffffffffffffff161461152a576040517f08c379a000000000000000000000000000000000000000000000000000000000815260040161152190612dc1565b60405180910390fd5b6004600082815260200190815260200160002060006101000a81549073ffffffffffffffffffffffffffffffffffffffff02191690556001600360008573ffffffffffffffffffffffffffffffffffffffff1673ffffffffffffffffffffffffffffffffffffffff168152602001908152602001600020600082825403925050819055506001600360008473ffffffffffffffffffffffffffffffffffffffff1673ffffffffffffffffffffffffffffffffffffffff16815260200190815260200160002060008282540192505081905550816002600083815260200190815260200160002060006101000a81548173ffffffffffffffffffffffffffffffffffffffff021916908373ffffffffffffffffffffffffffffffffffffffff160217905550808273ffffffffffffffffffffffffffffffffffffffff168473ffffffffffffffffffffffffffffffffffffffff167fddf252ad1be2c89b69c2b068fc378daa952ba7f163c4a11628f55a4df523b3ef60405160405180910390a46116b68383836001611a0a565b505050565b60006002600083815260200190815260200160002060009054906101000a900473ffffffffffffffffffffffffffffffffffffffff169050919050565b611712828260405180602001604052806000815250611a10565b5050565b8173ffffffffffffffffffffffffffffffffffffffff168373ffffffffffffffffffffffffffffffffffffffff1603611784576040517f08c379a000000000000000000000000000000000000000000000000000000000815260040161177b90612ebf565b60405180910390fd5b80600560008573ffffffffffffffffffffffffffffffffffffffff1673ffffffffffffffffffffffffffffffffffffffff16815260200190815260200160002060008473ffffffffffffffffffffffffffffffffffffffff1673ffffffffffffffffffffffffffffffffffffffff16815260200190815260200160002060006101000a81548160ff0219169083151502179055508173ffffffffffffffffffffffffffffffffffffffff168373ffffffffffffffffffffffffffffffffffffffff167f17307eab39ab6107e8899845ad3d59bd9653f200f220920489ca2b5937696c31836040516118759190612094565b60405180910390a3505050565b61188d8484846113c2565b61189984848484611a6b565b6118d8576040517f08c379a00000000000000000000000000000000000000000000000000000000081526004016118cf90612f51565b60405180910390fd5b50505050565b606060405180602001604052806000815250905090565b60606000600161190484611bf2565b01905060008167ffffffffffffffff81111561192357611922612593565b5b6040519080825280601f01601f1916602001820160405280156119555781602001600182028036833780820191505090505b509050600082602001820190505b6001156119b8578080600190039150507f3031323334353637383961626364656600000000000000000000000000000000600a86061a8153600a85816119ac576119ab612f71565b5b04945060008503611963575b819350505050919050565b60008073ffffffffffffffffffffffffffffffffffffffff166119e5836116bb565b73ffffffffffffffffffffffffffffffffffffffff1614159050919050565b50505050565b50505050565b611a1a8383611d45565b611a276000848484611a6b565b611a66576040517f08c379a0000000000000000000000000000000000000000000000000000000008152600401611a5d90612f51565b60405180910390fd5b505050565b6000611a8c8473ffffffffffffffffffffffffffffffffffffffff16611f62565b15611be5578373ffffffffffffffffffffffffffffffffffffffff1663150b7a02611ab561126c565b8786866040518563ffffffff1660e01b8152600401611ad79493929190612ff5565b6020604051808303816000875af1925050508015611b1357506040513d601f19601f82011682018060405250810190611b109190613056565b60015b611b95573d8060008114611b43576040519150601f19603f3d011682016040523d82523d6000602084013e611b48565b606091505b506000815103611b8d576040517f08c379a0000000000000000000000000000000000000000000000000000000008152600401611b8490612f51565b60405180910390fd5b805181602001fd5b63150b7a0260e01b7bffffffffffffffffffffffffffffffffffffffffffffffffffffffff1916817bffffffffffffffffffffffffffffffffffffffffffffffffffffffff191614915050611bea565b600190505b949350505050565b600080600090507a184f03e93ff9f4daa797ed6e38ed64bf6a1f0100000000000000008310611c50577a184f03e93ff9f4daa797ed6e38ed64bf6a1f0100000000000000008381611c4657611c45612f71565b5b0492506040810190505b6d04ee2d6d415b85acef81000000008310611c8d576d04ee2d6d415b85acef81000000008381611c8357611c82612f71565b5b0492506020810190505b662386f26fc100008310611cbc57662386f26fc100008381611cb257611cb1612f71565b5b0492506010810190505b6305f5e1008310611ce5576305f5e1008381611cdb57611cda612f71565b5b0492506008810190505b6127108310611d0a576127108381611d0057611cff612f71565b5b0492506004810190505b60648310611d2d5760648381611d2357611d22612f71565b5b0492506002810190505b600a8310611d3c576001810190505b80915050919050565b600073ffffffffffffffffffffffffffffffffffffffff168273ffffffffffffffffffffffffffffffffffffffff1603611db4576040517f08c379a0000000000000000000000000000000000000000000000000000000008152600401611dab906130cf565b60405180910390fd5b611dbd816119c3565b15611dfd576040517f08c379a0000000000000000000000000000000000000000000000000000000008152600401611df49061313b565b60405180910390fd5b611e0b600083836001611a04565b611e14816119c3565b15611e54576040517f08c379a0000000000000000000000000000000000000000000000000000000008152600401611e4b9061313b565b60405180910390fd5b6001600360008473ffffffffffffffffffffffffffffffffffffffff1673ffffffffffffffffffffffffffffffffffffffff16815260200190815260200160002060008282540192505081905550816002600083815260200190815260200160002060006101000a81548173ffffffffffffffffffffffffffffffffffffffff021916908373ffffffffffffffffffffffffffffffffffffffff160217905550808273ffffffffffffffffffffffffffffffffffffffff16600073ffffffffffffffffffffffffffffffffffffffff167fddf252ad1be2c89b69c2b068fc378daa952ba7f163c4a11628f55a4df523b3ef60405160405180910390a4611f5e600083836001611a0a565b5050565b6000808273ffffffffffffffffffffffffffffffffffffffff163b119050919050565b60405180610100016040528060608152602001600073ffffffffffffffffffffffffffffffffffffffff1681526020016000815260200160008152602001600081526020016000815260200160008152602001600081525090565b6000604051905090565b600080fd5b600080fd5b60007fffffffff0000000000000000000000000000000000000000000000000000000082169050919050565b61202981611ff4565b811461203457600080fd5b50565b60008135905061204681612020565b92915050565b60006020828403121561206257612061611fea565b5b600061207084828501612037565b91505092915050565b60008115159050919050565b61208e81612079565b82525050565b60006020820190506120a96000830184612085565b92915050565b600081519050919050565b600082825260208201905092915050565b60005b838110156120e95780820151818401526020810190506120ce565b60008484015250505050565b6000601f19601f8301169050919050565b6000612111826120af565b61211b81856120ba565b935061212b8185602086016120cb565b612134816120f5565b840191505092915050565b600060208201905081810360008301526121598184612106565b905092915050565b6000819050919050565b61217481612161565b811461217f57600080fd5b50565b6000813590506121918161216b565b92915050565b6000602082840312156121ad576121ac611fea565b5b60006121bb84828501612182565b91505092915050565b600073ffffffffffffffffffffffffffffffffffffffff82169050919050565b60006121ef826121c4565b9050919050565b6121ff816121e4565b82525050565b600060208201905061221a60008301846121f6565b92915050565b612229816121e4565b811461223457600080fd5b50565b60008135905061224681612220565b92915050565b6000806040838503121561226357612262611fea565b5b600061227185828601612237565b925050602061228285828601612182565b9150509250929050565b61229581612161565b82525050565b60006020820190506122b0600083018461228c565b92915050565b6000806000606084860312156122cf576122ce611fea565b5b60006122dd86828701612237565b93505060206122ee86828701612237565b92505060406122ff86828701612182565b9150509250925092565b6000819050919050565b61231c81612309565b82525050565b600061010082019050818103600083015261233d818b612106565b905061234c602083018a6121f6565b6123596040830189612313565b6123666060830188612313565b6123736080830187612313565b61238060a083018661228c565b61238d60c083018561228c565b61239a60e083018461228c565b9998505050505050505050565b6000602082840312156123bd576123bc611fea565b5b60006123cb84828501612237565b91505092915050565b600082825260208201905092915050565b60006123f0826120af565b6123fa81856123d4565b935061240a8185602086016120cb565b612413816120f5565b840191505092915050565b612427816121e4565b82525050565b61243681612309565b82525050565b61244581612161565b82525050565b600061010083016000830151848203600086015261246982826123e5565b915050602083015161247e602086018261241e565b506040830151612491604086018261242d565b5060608301516124a4606086018261242d565b5060808301516124b7608086018261242d565b5060a08301516124ca60a086018261243c565b5060c08301516124dd60c086018261243c565b5060e08301516124f060e086018261243c565b508091505092915050565b60006020820190508181036000830152612515818461244b565b905092915050565b61252681612079565b811461253157600080fd5b50565b6000813590506125438161251d565b92915050565b600080604083850312156125605761255f611fea565b5b600061256e85828601612237565b925050602061257f85828601612534565b9150509250929050565b600080fd5b600080fd5b7f4e487b7100000000000000000000000000000000000000000000000000000000600052604160045260246000fd5b6125cb826120f5565b810181811067ffffffffffffffff821117156125ea576125e9612593565b5b80604052505050565b60006125fd611fe0565b905061260982826125c2565b919050565b600067ffffffffffffffff82111561262957612628612593565b5b612632826120f5565b9050602081019050919050565b82818337600083830152505050565b600061266161265c8461260e565b6125f3565b90508281526020810184848401111561267d5761267c61258e565b5b61268884828561263f565b509392505050565b600082601f8301126126a5576126a4612589565b5b81356126b584826020860161264e565b91505092915050565b600080600080608085870312156126d8576126d7611fea565b5b60006126e687828801612237565b94505060206126f787828801612237565b935050604061270887828801612182565b925050606085013567ffffffffffffffff81111561272957612728611fef565b5b61273587828801612690565b91505092959194509250565b600081519050919050565b600082825260208201905092915050565b6000819050602082019050919050565b600061010083016000830151848203600086015261278b82826123e5565b91505060208301516127a0602086018261241e565b5060408301516127b3604086018261242d565b5060608301516127c6606086018261242d565b5060808301516127d9608086018261242d565b5060a08301516127ec60a086018261243c565b5060c08301516127ff60c086018261243c565b5060e083015161281260e086018261243c565b508091505092915050565b6000612829838361276d565b905092915050565b6000602082019050919050565b600061284982612741565b612853818561274c565b9350836020820285016128658561275d565b8060005b858110156128a15784840389528151612882858261281d565b945061288d83612831565b925060208a01995050600181019050612869565b50829750879550505050505092915050565b600060208201905081810360008301526128cd818461283e565b905092915050565b600080604083850312156128ec576128eb611fea565b5b60006128fa85828601612237565b925050602061290b85828601612237565b9150509250929050565b7f4e487b7100000000000000000000000000000000000000000000000000000000600052602260045260246000fd5b6000600282049050600182168061295c57607f821691505b60208210810361296f5761296e612915565b5b50919050565b7f4552433732313a20617070726f76616c20746f2063757272656e74206f776e6560008201527f7200000000000000000000000000000000000000000000000000000000000000602082015250565b60006129d16021836120ba565b91506129dc82612975565b604082019050919050565b60006020820190508181036000830152612a00816129c4565b9050919050565b7f4552433732313a20617070726f76652063616c6c6572206973206e6f7420746f60008201527f6b656e206f776e6572206f7220617070726f76656420666f7220616c6c000000602082015250565b6000612a63603d836120ba565b9150612a6e82612a07565b604082019050919050565b60006020820190508181036000830152612a9281612a56565b9050919050565b7f4552433732313a207472616e736665722063616c6c6572206973206e6f74206f60008201527f776e6572206e6f7220617070726f766564000000000000000000000000000000602082015250565b6000612af56031836120ba565b9150612b0082612a99565b604082019050919050565b60006020820190508181036000830152612b2481612ae8565b9050919050565b7f4e487b7100000000000000000000000000000000000000000000000000000000600052601160045260246000fd5b6000612b6582612161565b9150612b7083612161565b9250828203905081811115612b8857612b87612b2b565b5b92915050565b7f4e487b7100000000000000000000000000000000000000000000000000000000600052603260045260246000fd5b7f4552433732313a20696e76616c696420746f6b656e2049440000000000000000600082015250565b6000612bf36018836120ba565b9150612bfe82612bbd565b602082019050919050565b60006020820190508181036000830152612c2281612be6565b9050919050565b7f4552433732313a2061646472657373207a65726f206973206e6f74206120766160008201527f6c6964206f776e65720000000000000000000000000000000000000000000000602082015250565b6000612c856029836120ba565b9150612c9082612c29565b604082019050919050565b60006020820190508181036000830152612cb481612c78565b9050919050565b6000612cc682612161565b9150612cd183612161565b9250828201905080821115612ce957612ce8612b2b565b5b92915050565b600081905092915050565b6000612d05826120af565b612d0f8185612cef565b9350612d1f8185602086016120cb565b80840191505092915050565b6000612d378285612cfa565b9150612d438284612cfa565b91508190509392505050565b7f4552433732313a207472616e736665722066726f6d20696e636f72726563742060008201527f6f776e6572000000000000000000000000000000000000000000000000000000602082015250565b6000612dab6025836120ba565b9150612db682612d4f565b604082019050919050565b60006020820190508181036000830152612dda81612d9e565b9050919050565b7f4552433732313a207472616e7366657220746f20746865207a65726f2061646460008201527f7265737300000000000000000000000000000000000000000000000000000000602082015250565b6000612e3d6024836120ba565b9150612e4882612de1565b604082019050919050565b60006020820190508181036000830152612e6c81612e30565b9050919050565b7f4552433732313a20617070726f766520746f2063616c6c657200000000000000600082015250565b6000612ea96019836120ba565b9150612eb482612e73565b602082019050919050565b60006020820190508181036000830152612ed881612e9c565b9050919050565b7f4552433732313a207472616e7366657220746f206e6f6e20455243373231526560008201527f63656976657220696d706c656d656e7465720000000000000000000000000000602082015250565b6000612f3b6032836120ba565b9150612f4682612edf565b604082019050919050565b60006020820190508181036000830152612f6a81612f2e565b9050919050565b7f4e487b7100000000000000000000000000000000000000000000000000000000600052601260045260246000fd5b600081519050919050565b600082825260208201905092915050565b6000612fc782612fa0565b612fd18185612fab565b9350612fe18185602086016120cb565b612fea816120f5565b840191505092915050565b600060808201905061300a60008301876121f6565b61301760208301866121f6565b613024604083018561228c565b81810360608301526130368184612fbc565b905095945050505050565b60008151905061305081612020565b92915050565b60006020828403121561306c5761306b611fea565b5b600061307a84828501613041565b91505092915050565b7f4552433732313a206d696e7420746f20746865207a65726f2061646472657373600082015250565b60006130b96020836120ba565b91506130c482613083565b602082019050919050565b600060208201905081810360008301526130e8816130ac565b9050919050565b7f4552433732313a20746f6b656e20616c7265616479206d696e74656400000000600082015250565b6000613125601c836120ba565b9150613130826130ef565b602082019050919050565b6000602082019050818103600083015261315481613118565b905091905056fea26469706673582212200a6cf0b42fb2e10288dad25f7c76be5a055641f1818c78870433aebefcdf2c1b64736f6c63430008130033",
  "immutableReferences": {},
  "source": "// SPDX-License-Identifier: MIT\r\npragma solidity ^0.8.0;\r\n\r\nimport \"@openzeppelin/contracts/token/ERC721/ERC721.sol\";\r\n\r\ncontract Land is ERC721 {\r\n    uint256 public cost = 1 ether;\r\n    uint256 public maxSupply = 5;\r\n    uint256 public totalSupply = 0;\r\n\r\n    struct Building {\r\n        string name;\r\n        address owner;\r\n        int256 posX;\r\n        int256 posY;\r\n        int256 posZ;\r\n        uint256 sizeX;\r\n        uint256 sizeY;\r\n        uint256 sizeZ;\r\n    }\r\n\r\n    Building[] public buildings;\r\n\r\n    constructor(\r\n        string memory _name,\r\n        string memory _symbol,\r\n        uint256 _cost\r\n    ) ERC721(_name, _symbol) {\r\n        cost = _cost;\r\n\r\n        buildings.push(\r\n            Building(\"City Hall\", address(0x0), 0, 0, 0, 10, 10, 10)\r\n        );\r\n        buildings.push(Building(\"Stadium\", address(0x0), 0, 10, 0, 10, 5, 3));\r\n        buildings.push(\r\n            Building(\"University\", address(0x0), 0, -10, 0, 10, 5, 3)\r\n        );\r\n        buildings.push(\r\n            Building(\"Shopping Plaza 1\", address(0x0), 10, 0, 0, 5, 25, 5)\r\n        );\r\n        buildings.push(\r\n            Building(\"Shopping Plaza 2\", address(0x0), -10, 0, 0, 5, 25, 5)\r\n        );\r\n    }\r\n\r\n    function mint(uint256 _id) public payable {\r\n        uint256 supply = totalSupply;\r\n        require(supply <= maxSupply);\r\n        require(buildings[_id - 1].owner == address(0x0));\r\n        require(msg.value >= cost);\r\n\r\n        // NOTE: tokenID always starts from 1, but our array starts from 0\r\n        buildings[_id - 1].owner = msg.sender;\r\n        totalSupply = totalSupply + 1;\r\n\r\n        _safeMint(msg.sender, _id);\r\n    }\r\n\r\n    function transferFrom(\r\n        address from,\r\n        address to,\r\n        uint256 tokenId\r\n    ) public override {\r\n        require(\r\n            _isApprovedOrOwner(_msgSender(), tokenId),\r\n            \"ERC721: transfer caller is not owner nor approved\"\r\n        );\r\n\r\n        // Update Building ownership\r\n        buildings[tokenId - 1].owner = to;\r\n\r\n        _transfer(from, to, tokenId);\r\n    }\r\n\r\n    function safeTransferFrom(\r\n        address from,\r\n        address to,\r\n        uint256 tokenId,\r\n        bytes memory _data\r\n    ) public override {\r\n        require(\r\n            _isApprovedOrOwner(_msgSender(), tokenId),\r\n            \"ERC721: transfer caller is not owner nor approved\"\r\n        );\r\n\r\n        // Update Building ownership\r\n        buildings[tokenId - 1].owner = to;\r\n\r\n        _safeTransfer(from, to, tokenId, _data);\r\n    }\r\n\r\n    // Public View Functions\r\n    function getBuildings() public view returns (Building[] memory) {\r\n        return buildings;\r\n    }\r\n\r\n    function getBuilding(uint256 _id) public view returns (Building memory) {\r\n        return buildings[_id - 1];\r\n    }\r\n}\r\n",
  "sourcePath": "D:\\Codes\\Projects\\metaverse-realestate-marketplace\\contracts\\Land.sol",
  "compiler": {
    "name": "solc",
    "version": "0.8.19+commit.7dd6d404.Emscripten.clang"
  },
  "schemaVersion": "3.4.16",
  "updatedAt": "2025-05-01T06:21:56.361Z",
  "networkType": "ethereum",
  "devdoc": {
    "events": {
      "Approval(address,address,uint256)": {
        "details": "Emitted when `owner` enables `approved` to manage the `tokenId` token."
      },
      "ApprovalForAll(address,address,bool)": {
        "details": "Emitted when `owner` enables or disables (`approved`) `operator` to manage all of its assets."
      },
      "Transfer(address,address,uint256)": {
        "details": "Emitted when `tokenId` token is transferred from `from` to `to`."
      }
    },
    "kind": "dev",
    "methods": {
      "approve(address,uint256)": {
        "details": "See {IERC721-approve}."
      },
      "balanceOf(address)": {
        "details": "See {IERC721-balanceOf}."
      },
      "getApproved(uint256)": {
        "details": "See {IERC721-getApproved}."
      },
      "isApprovedForAll(address,address)": {
        "details": "See {IERC721-isApprovedForAll}."
      },
      "name()": {
        "details": "See {IERC721Metadata-name}."
      },
      "ownerOf(uint256)": {
        "details": "See {IERC721-ownerOf}."
      },
      "safeTransferFrom(address,address,uint256)": {
        "details": "See {IERC721-safeTransferFrom}."
      },
      "setApprovalForAll(address,bool)": {
        "details": "See {IERC721-setApprovalForAll}."
      },
      "supportsInterface(bytes4)": {
        "details": "See {IERC165-supportsInterface}."
      },
      "symbol()": {
        "details": "See {IERC721Metadata-symbol}."
      },
      "tokenURI(uint256)": {
        "details": "See {IERC721Metadata-tokenURI}."
      },
      "transferFrom(address,address,uint256)": {
        "details": "See {IERC721-transferFrom}."
      }
    },
    "version": 1
  },
  "userdoc": {
    "kind": "user",
    "methods": {},
    "version": 1
  }
}